:100000000C9494000C94B3000C94B3000C94B300C3
:100010000C94B3000C94B3000C94B3000C94B30094
:100020000C94B3000C94B3000C94B3000C94B30084
:100030000C94B3000C94B3000C9487150C94B3008B
:100040000C94B3000C94B3000C94B3000C94B30064
:100050000C94B3000C94B3000C94B3000C94B30054
:100060000C94B3000C94B3000C94B3000C94B30044
:100070000C94B3000C94B3000C94B3000C94B30034
:100080000C94B3000C94B3000C94B30005A84CCDB1
:10009000B2D44EB93836A9020C50B9918688083CC2
:1000A000A6AAAA2ABE000000803F08000000BE9257
:1000B0002449123EABAAAA2ABECDCCCC4C3E0000AD
:1000C0000080BEABAAAAAA3E00000000BF0000004C
:1000D000803F0000000000084178D3BB4387D11364
:1000E0003D190E3CC3BD4282AD2B3E68EC8276BE0C
:1000F000D98FE1A93E4C80EFFFBE01C4FF7F3F00D6
:10010000000000000664EC1B3C04BC163E3BE5B955
:100110003CC93C37C29E5A3D660498083EEA69AA2B
:10012000AA3E000000803F0011241FBECFEFD0E1A7
:10013000DEBFCDBF13E0A0E0B1E0E0EBFEE300E006
:100140000BBF02C007900D92AC38B107D9F71DE084
:10015000ACE8B3E001C01D92A538B107E1F70E94F9
:1001600043140C94561F0C9400008091940381302A
:1001700039F4809137048F3F19F08F5F80933704F3
:10018000089580919403813049F4F8948091930309
:100190008F3F19F08F5F80939303789408958CEFCD
:1001A00090E00895FF920F931F93CF93DF93EC019C
:1001B0008B01F42E3981E32FF0E0E85FFE4F2081C0
:1001C000422F50E0FA01E050FF4F7081DC01A40F94
:1001D000B51F16969C911697E92FF0E0E85FFE4F49
:1001E0008081E82FF0E0E050FF4F6081220F220F66
:1001F000220F280F862F8095892316968C938823AB
:1002000021F4872F809538233983E22FF0E0EE0F19
:10021000FF1FE758F94F0190F081E02D13861286F9
:1002200017821682118700878F2D809594858923E8
:100230008487882359F480912B04872B80932B0487
:10024000FA01E45DFB4F8081682B6083822FDF9190
:10025000CF911F910F91FF900895CF93DF93EC0101
:10026000A0913804B091390417969C938E931697F9
:100270001F968C911F97282F30E050964C915097E5
:10028000F901E45DFB4F842F809590818923808361
:10029000882349F451969C915197909580912B0415
:1002A000892380932B04FE01E20FF31F8681842BA8
:1002B0008683898151969C91892B8983DF91CF9187
:1002C0000895CF93DF93EC01A0913804B0913904E5
:1002D0001F968C911F97FE01E80FF11D50968C918F
:1002E00050978095968189238683882339F4519687
:1002F0009C91519790958981892389831C961C92A2
:100300001C9717961C921E921697DF91CF91089515
:10031000FC011182168217821086118612861386BE
:10032000148615860895CF93DF939C01809137043E
:10033000882319F0C0E0D0E019C0F894C0913404CB
:10034000D0913504209731F08C819D8190933504B4
:10035000809334047894209749F081E088831B824D
:100360001A823D832C83CE010E948801CE01DF9149
:10037000CF910895CF93DF939C0180913704882318
:1003800019F0C0E0D0E019C0F894C0913404D091C5
:100390003504209731F08C819D81909335048093B2
:1003A00034047894209749F083E088833B832A8340
:1003B0001D821C82CE010E948801CE01DF91CF9167
:1003C00008951F93CF93DF93182FF894C0912504BD
:1003D000D0912604209709F453C08A819B81909381
:1003E0002604809325047894798368831D871C866E
:1003F0001B861A86E12FE695E695E695EF87F0E0F5
:10040000E050FF4F8081898BE12FE770EE87F0E0AD
:10041000E050FF4F8081888B1F821E8219861886CC
:10042000CE010E94B714CE010E948914F894E12FE6
:10043000F0E0EE0FFF1FE758F94FD183C083E09142
:100440009B03F0919C03FB83EA831D821C823097FF
:1004500011F0D583C483D0939C03C0939B038091F8
:100460002B049989892B80932B04EF85F0E0E45DC0
:10047000FB4F80819889892B8083789480E002C02B
:10048000789486E4DF91CF911F910895F89480913C
:10049000950390919603A0919703B09198030196CC
:1004A000A11DB11D8093950390939603A09397038C
:1004B000B093980378940E948B14E8CFF8948091BD
:1004C0003704882309F03FC0809193038823D9F52E
:1004D000E0912B04F0E0E85FFE4F8081E82FF0E030
:1004E000E45DFB4FE081F0E0E85FFE4F982F990F4D
:1004F000990F990F8081980F9093990380919A0397
:10050000981709F1E92FF0E0EE0FFF1FE758F94FB8
:100510008081918190932A048093290480911D0405
:1005200090911E04A0911F04B09120040196A11D7A
:10053000B11D80931D0490931E04A0931F04B093DB
:1005400020040E94ED14789408959C01009721F1F5
:10055000F894A0913804B09139041F96EC911F973C
:10056000F0E0E45DFB4F50968C9150978095908120
:1005700089238083882349F451969C9151979095C3
:1005800080912B04892380932B041B963C932E93FC
:100590001A9778940E945E0208958F929F92AF926C
:1005A000BF92CF92DF92EF92FF920F931F93CF9360
:1005B000DF93882E162F942E882349F4662339F46E
:1005C000442349F42115310559F484E56AC01C33EC
:1005D00010F081E566C08BE3891510F482E561C0F7
:1005E00093E0283E390710F083E55BC0B90180E055
:1005F00090E022E330E040E050E00E94641C6C5048
:100600007E4F8F4F9F4F28EE33E040E050E00E9436
:10061000AA1C59016A01612F70E080E090E02CE390
:1006200030E040E050E00E94641C7B018C01E90C4A
:10063000F11C011D111D682D70E080E090E020E1AB
:100640003EE040E050E00E94641CE60EF71E081FEA
:10065000191FC801B70122E330E040E050E00E94DA
:10066000641CA60EB71EC81ED91EC601AA27BB272A
:10067000EC018FEF9FEFA0E0B0E0A822B922CA22E0
:10068000DB22C5010E94A50209C080E090E80E941B
:10069000A50280E090E80E94A50221972097A9F783
:1006A00080E0DF91CF911F910F91FF90EF90DF904D
:1006B000CF90BF90AF909F908F900895DF92EF9270
:1006C000FF920F931F9304C084E690E00E94A5025E
:1006D000809178068823C1F36091210470912204EF
:1006E000809123049091240424E630E040E050E01F
:1006F0000E94AA1CC901DA017C018D0144E6D42EB6
:10070000F8948091950390919603A0919703B091EE
:1007100098038093F7069093F806A093F906B09398
:10072000FA066091950370919603809197039091DA
:1007300098031092950310929603109297031092CB
:1007400098037894E114F1040105110571F0A801F2
:1007500097010E94AA1C8D2D821B87FD03C08093E8
:10076000270417C01092270414C010922704609128
:10077000210470912204809123049091240424E6A2
:1007800030E040E050E00E94AA1CC901DA017C017F
:100790008D010E948C1482E390E00E94A502B0CFEC
:1007A00082E090E00E94A502F894109295031092C6
:1007B00096031092970310929803789482E390E046
:1007C0000E94A502F8948091950390919603A091C0
:1007D0009703B09198038093210490932204A093EF
:1007E0002304B093240481E08093780678940895DC
:1007F000AF92BF92CF92DF92EF92FF920F931F932F
:10080000CF93DF93FC01122FF894C22FD0E0CC0FCE
:10081000DD1FC758D94F88819981892B79F581E0EF
:1008200090E0998388837894CF0120E030E00E94A3
:100830008D14BC01812F40E050E020E030E0EE2438
:10084000FF248701CC24DD24AA24BB240E94E101DB
:10085000182F882371F4F894809128048F5F809377
:100860002804789480919403813051F40E945E02B0
:1008700007C0F89419821882789402C0789418E21C
:10088000812FDF91CF911F910F91FF90EF90DF901B
:10089000CF90BF90AF900895FC01F8948181882398
:1008A00051F0CF0160E070E041E00E94D200789406
:1008B0000E945E020AC0828193812FEF8F3F9207D0
:1008C00031F0019693838283789480E00895789440
:1008D00082E308950F931F93CF93DF93EC018A0176
:1008E00080913704882311F082E026C0F8948A8131
:1008F0009B81009729F001979B838A83789422C07B
:10090000E0913804F091390484858160848773878D
:100910006287CE010E942D0178940E945E02F894B5
:10092000E0913804F0913904848580FF08C0CE013D
:100930000E94610178948AE0F801808305C01782E3
:1009400016827894F8011082DF91CF911F910F9158
:100950000895FC01F8948181882349F0CF0142E099
:100960000E94D20078940E945E0280E00895848103
:100970009581892B19F0789484E1089575836483B7
:10098000789480E00895EF92FF920F931F93CF9396
:10099000DF938C017A0180913704882331F082E063
:1009A000FA018083C0E0D0E032C0F894F801C4813D
:1009B000D581209721F01582148278941EC0E09191
:1009C0003804F09139048485826084877387628754
:1009D000C8010E942D0178940E945E02F894E09173
:1009E0003804F0913904C085D185209749F01186EB
:1009F00010861486178216827894F701108207C039
:100A0000C8010E94610178948AE0F7018083CE01D9
:100A1000DF91CF911F910F91FF90EF9008958091FA
:100A200094038130A9F4F89480919303882379F09A
:100A3000815080939303882341F480913704882365
:100A400021F478940E945E02089578940895789431
:100A500008950E94B81480919403813009F03DC03C
:100A6000A0919B03B0919C0320912B0441E050E0A6
:100A70002DC0F8941A968D919C911B97009709F1BF
:100A800001971B969C938E931A97892BD1F41C96F1
:100A90008C911C9783FD11C051968C915197282BF6
:100AA0001F96EC911F97F0E0E45DFB4F808150961C
:100AB0009C915097892B808304C01B965C934E9326
:100AC0001A9712960D90BC91A02D78941D968C913A
:100AD0001D978E3371F620932B0408958091940313
:100AE000882341F5E0912B04F0E0E85FFE4FA08100
:100AF000EA2FF0E0E45DFB4FE081F0E0E85FFE4FBD
:100B0000AA0FAA0FAA0F8081A80FA0939903A09300
:100B10009A03B0E0AA0FBB1FA758B94F8D919C91C3
:100B200090932A0480932904909339048093380485
:100B30000E94B914089580919403813009F04FC048
:100B4000F89480913704882319F0815080933704FA
:100B500080913704882309F041C080919303882352
:100B6000E9F5E0912B04F0E0E85FFE4F808180938F
:100B70003604E82FF0E0E45DFB4FE081F0E0E85F51
:100B8000FE4F982F990F990F990F8081980F90938E
:100B9000990380919A03981709F1E92FF0E0EE0F7D
:100BA000FF1FE758F94F8081918190932A04809329
:100BB000290480911D0490911E04A0911F04B091FE
:100BC00020040196A11DB11D80931D0490931E0465
:100BD000A0931F04B09320040E94501578940895A8
:100BE0000E948714109237041092930310922804E5
:100BF0001092940310921D0410921E0410921F0470
:100C0000109220041092950310929603109297036D
:100C10001092980310922B04ECE2F4E0119224E07D
:100C2000E433F207D9F710929A03109299031092C5
:100C30002A04109229041092390410923804109258
:100C40009C0310929B03E9E7F6E01192119286E073
:100C5000E73FF807D1F788E595E0FC0170979183AD
:100C60008083429626E088379207B9F7109269068A
:100C70001092680686E495E09093260480932504FC
:100C8000EAEBF4E0CF010E96108295838483FC0199
:100C900085E0E833F807B1F71082158214828AEBF9
:100CA00094E0909335048093340486E492E060E00D
:100CB00070E049EB54E02EE30E94F8038EE593E0E8
:100CC00060E070E04CE154E02DE30E94F8030E94E4
:100CD0008814089515BE10926D0010926C008FEF6D
:100CE0008ABB1BBA17BA18BA84BB15BA11BA12BAA2
:100CF00082EF82B913B8109261001092620088E10D
:100D00008093640010926500089590E007C00F92F0
:100D10000F900F920F900F920F909F5F9817B8F35C
:100D200008950F931F93CF93DF938C01C0E0D0E021
:100D30000DC08AEF0E9485068AEF0E9485068AEF21
:100D40000E9485068AEF0E9485062196C017D1076A
:100D500080F3DF91CF911F910F910895A998A898E2
:100D60008BBBA99A0F920F90A99882E30E948506E7
:100D70000895A998A89A8BBBA99A0F920F90A99849
:100D800082E30E9485060895CF93DF93EB010E94D2
:100D9000AE0603C00E94B906219688818823D1F748
:100DA000DF91CF910895A99AA89AA998A89A82E06C
:100DB00090E00E94910688E30E94AE068CE00E94BB
:100DC000AE0686E00E94AE0681E00E94AE0682E09A
:100DD00090E00E94910608958A30910510F4805D9C
:100DE00001C080E20E94B9060895EF92FF920F932E
:100DF0001F9320E030E048EC52E40E94E71720E027
:100E000030E040E05FE30E94BA170E941B1A7B01AA
:100E10008C01CB0164E670E00E94971C862F805DF8
:100E20000E94B9068EE20E94B906C70164E670E02E
:100E30000E94971C6AE070E00E94971C862F805DDC
:100E40000E94B906C7016AE070E00E94971C805DAD
:100E50000E94B9061F910F91FF90EF900895CF93D4
:100E6000DF93EC016AE070E00E94831CCB01611506
:100E7000710511F480E201C0805D0E94B906CE01C7
:100E80006AE070E00E94831C805D0E94B906DF91D9
:100E9000CF910895AF92BF92CF92DF92EF92FF92DF
:100EA0000F931F93CF93DF937B018C010E941B1A3A
:100EB0005B016C01EB01C801B70120E030E040E0CC
:100EC00050E00E948D19882344F48DE20E94B906F7
:100ED000882799278A199B0904C08BE20E94B906CA
:100EE000C5010E942F078EE20E94B906BE01882725
:100EF00077FD8095982F0E94BD199B01AC01C80118
:100F0000B7010E94891720E030E040E251E40E94DE
:100F1000E7170E941B1ADC01CB01805D0E94B90615
:100F2000DF91CF911F910F91FF90EF90DF90CF90C5
:100F3000BF90AF900895AF92BF92CF92DF92EF92A1
:100F4000FF920F931F93CF93DF937B018C0120E0DF
:100F500030E048EC52E40E94E71720E030E040E047
:100F60005FE30E94BA170E941B1A5B016C01EB0140
:100F7000C801B7010E941B1ADC01CB010E942F0798
:100F80008EE20E94B906CA30D10544F0C5016AE07C
:100F900070E00E94971C862F805D01C080E30E9454
:100FA000B906CE016AE070E00E94971C805D0E9445
:100FB000B906DF91CF911F910F91FF90EF90DF90D5
:100FC000CF90BF90AF900895CF93DF93EC0124E0D2
:100FD000969587952A95E1F78F7090708A309105E4
:100FE00010F4805D01C0895C0E94B906CE018F704B
:100FF00090708A30910510F4805D01C0895C0E9478
:10100000B906DF91CF910895AF92BF92CF92DF9250
:10101000EF92FF920F931F935B016C0120E030E091
:1010200040E251E40E94E1180E941B1A7B018C01EE
:10103000862F805D0E94B9069701B70153E0660FC5
:10104000771F5A95E1F7220F331F620F731F88270E
:1010500077FD8095982F0E94BD199B01AC01C601B8
:10106000B5010E9489170E941B1ADC01CB01805D2B
:101070000E94B9068EE20E94B906C601B5010E941F
:101080001B1A882777FD8095982F0E94BD199B0118
:10109000AC01C601B5010E94891720E030E040E2B2
:1010A00051E40E94E7170E941B1ADC01CB01805D0E
:1010B0000E94B9061F910F91FF90EF90DF90CF90A3
:1010C000BF90AF9008950F931F93CF93DF93EC01E0
:1010D00064E670E00E94831CCB016115710531F458
:1010E00080E20E94B90620E030E005C0805D0E94E9
:1010F000B90621E030E0CE0164E670E00E94831C76
:10110000182F092F6AE070E00E94831CCB01611543
:10111000710521F4232B11F480E201C0805D0E944F
:10112000B906812F902F6AE070E00E94831C805DD9
:101130000E94B906DF91CF911F910F9108950F93EF
:101140001F93CF93DF938C0168EE73E00E94831CA2
:10115000CB016115710531F480E20E94B906C0E04F
:10116000D0E005C0805D0E94B906C1E0D0E0C801B2
:1011700068EE73E00E94831C182F092F64E670E06C
:101180000E94831CCB016115710531F4209721F475
:1011900080E20E94B90605C0805D0E94B906C1E0E8
:1011A000D0E0812F902F64E670E00E94831C182FFE
:1011B000092F6AE070E00E94831CCB016115710564
:1011C00021F4CD2B11F480E201C0805D0E94B906AC
:1011D000812F902F6AE070E00E94831C805D0E9446
:1011E000B906DF91CF911F910F910895EF92FF9271
:1011F0000F931F93CF93DF93EC0197FF05C0D0951A
:10120000C195DF4F8DE205C0009711F480E201C067
:101210008BE20E94B906CE0168EE73E00E94971C33
:10122000CB016115710531F480E20E94B90600E03E
:1012300010E005C0805D0E94B90601E010E0CE011B
:1012400068EE73E00E94971CF82EE92E64E670E0C9
:101250000E94971CCB016115710539F40115110528
:1012600021F480E20E94B90605C0805D0E94B906A3
:1012700001E010E08F2D9E2D64E670E00E94971C27
:10128000F82EE92E6AE070E00E94971CCB016115F0
:10129000710521F4012B11F480E201C0805D0E94F0
:1012A000B9068F2D9E2D6AE070E00E94971C805D2C
:1012B0000E94B906DF91CF911F910F91FF90EF909F
:1012C0000895AF92BF92CF92DF92EF92FF920F9369
:1012D0001F935B016C010E941B1ADC01CB017C0196
:1012E0000E942F078EE20E94B9060027F7FC0095A6
:1012F000102FC801B7010E94BD199B01AC01C601A6
:10130000B5010E94891720E030E040E251E40E94DC
:10131000E7170E941B1ADC01CB01805D0E94B90611
:101320001F910F91FF90EF90DF90CF90BF90AF9003
:101330000895EF92FF920F931F93CF93DF9320E0D6
:1013400030E040E251E40E94E71720E030E040E066
:101350005FE30E94BA170E941B1ADC01CB01EC016B
:1013600060E177E20E94831CCB016115710531F4C5
:1013700080E20E94B90600E010E005C0805D0E9496
:10138000B90601E010E0CE0160E177E20E94831C23
:10139000F82EE92E68EE73E00E94831CCB016115E4
:1013A000710539F40115110521F480E20E94B90696
:1013B00005C0805D0E94B90601E010E08F2D9E2DD2
:1013C00068EE73E00E94831CF82EE92E64E670E05C
:1013D0000E94831CCB016115710521F4012B11F4CE
:1013E00080E201C0805D0E94B9068F2D9E2D64E6CB
:1013F00070E00E94831C182F092F6AE070E00E94A1
:10140000831C862F805D0E94B9068EE20E94B90679
:10141000812F902F6AE070E00E94831C805D0E9403
:10142000B906DF91CF911F910F91FF90EF90089532
:10143000CF93DF93EC01892F992782958F708A30A3
:10144000910510F4805D01C0895C0E94B9068D2F62
:1014500099278F7090708A30910510F4805D01C0DB
:10146000895C0E94B906CE0164E0969587956A95DD
:10147000E1F78F7090708A30910510F4805D01C0A3
:10148000895C0E94B906CE018F7090708A309105F8
:1014900010F4805D01C0895C0E94B906DF91CF9194
:1014A0000895EF92FF920F931F93CF93DF937B01E9
:1014B0008C0120E432E44FE050E00E94AA1C822F0D
:1014C000232B31F480E20E94B906C0E0D0E005C0D1
:1014D000805D0E94B906C1E0D0E0C801B70120E4F8
:1014E00032E44FE050E00E94AA1C162F072FF82E7E
:1014F000E92E20EA36E841E050E00E94AA1C822F43
:10150000232B31F4209721F480E20E94B90605C014
:10151000805D0E94B906C1E0D0E0612F702F8F2D51
:101520009E2D20EA36E841E050E00E94AA1C162FCA
:10153000072FF82EE92E20E137E240E050E00E942C
:10154000AA1C822F232B31F4209721F480E20E94E1
:10155000B90605C0805D0E94B906C1E0D0E0612FE8
:10156000702F8F2D9E2D20E137E240E050E00E9449
:10157000AA1C162F072FF82EE92E28EE33E040E0A4
:1015800050E00E94AA1C822F232B31F4209721F4D3
:1015900080E20E94B90605C0805D0E94B906C1E0E4
:1015A000D0E0612F702F8F2D9E2D28EE33E040E08C
:1015B00050E00E94AA1C162F072FF82EE92E24E6D1
:1015C00030E040E050E00E94AA1C822F232B21F43F
:1015D000CD2B11F480E201C0805D0E94B906612F1D
:1015E000702F8F2D9E2D24E630E040E050E00E94C9
:1015F000AA1C862F805D0E94B906DF91CF911F91B2
:101600000F91FF90EF900895FF920F931F93CF9348
:10161000DF93EC0160E177E20E94831C662329F4EA
:1016200080E20E94B90610E005C0862F805D0E940E
:10163000B90611E0CE0160E177E20E94831C082F19
:10164000F92E68EE73E00E94831C662331F41123A7
:1016500021F480E20E94B90605C0862F805D0E94B9
:10166000B90611E0802F9F2D68EE73E00E94831C65
:10167000082FF92E64E670E00E94831C662331F483
:10168000112321F480E20E94B90605C0862F805DF7
:101690000E94B90611E0802F9F2D64E670E00E9441
:1016A000831C082FF92E6AE070E00E94831C6623D9
:1016B00021F4112311F480E202C0862F805D0E9484
:1016C000B906802F9F2D6AE070E00E94831C805D28
:1016D0000E94B906DF91CF911F910F91FF9008955D
:1016E000EF92FF920F931F93CF93DF937B018C01B7
:1016F00020E432E44FE050E00E94AA1C822F232B0A
:1017000031F480E20E94B906C0E0D0E005C0805DFF
:101710000E94B906C1E0D0E0C801B70120E432E47C
:101720004FE050E00E94AA1C162F072FF82EE92E3A
:1017300020EA36E841E050E00E94AA1C822F232BC9
:1017400031F4209721F480E20E94B90605C0805D43
:101750000E94B906C1E0D0E0612F702F8F2D9E2D21
:1017600020EA36E841E050E00E94AA1C162F072F1D
:10177000F82EE92E20E137E240E050E00E94AA1C5A
:10178000822F232B31F4209721F480E20E94B906A6
:1017900005C0805D0E94B906C1E0D0E0612F702FC6
:1017A0008F2D9E2D20E137E240E050E00E94AA1CE0
:1017B000162F072FF82EE92E28EE33E040E050E0F8
:1017C0000E94AA1C822F232B31F4209721F480E25F
:1017D0000E94B90605C0805D0E94B906C1E0D0E054
:1017E000612F702F8F2D9E2D28EE33E040E050E0CA
:1017F0000E94AA1C162F072FF82EE92E24E630E0AF
:1018000040E050E00E94AA1C822F232B21F4CD2B14
:1018100011F480E201C0805D0E94B906612F702F33
:101820008F2D9E2D24E630E040E050E00E94AA1C5F
:10183000862F805D0E94B906612F702F8F2D9E2DFF
:101840002AE030E040E050E00E94AA1C862F805D34
:101850000E94B906DF91CF911F910F91FF90EF90F9
:101860000895AF92BF92CF92DF92EF92FF920F93C3
:101870001F93CF93DF937B018C010E941B1A5B01A6
:101880006C01B501882777FD8095982F0E94BD19BE
:101890009B01AC01C801B7010E94891720E030E02C
:1018A00048EC52E40E94E71720E030E040E05FE3BC
:1018B0000E94BA170E941B1AEB01C5010E942F0754
:1018C0008EE20E94B906CA30D1051CF480E30E9462
:1018D000B906CE010E942F07DF91CF911F910F9182
:1018E000FF90EF90DF90CF90BF90AF900895CF9290
:1018F000DF92EF92FF920F931F93CF93DF937B01C1
:101900008C010E941B1AEB01BE01882777FD809590
:10191000982F0E94BD199B01AC01C801B7010E941C
:10192000891720E030E048EC52E40E94E71720E0FD
:1019300030E040E05FE30E94BA170E941B1A6B017F
:10194000C801B70120E030E040E050E00E948D196E
:1019500088233CF48DE20E94B906D095C195DF4FF3
:1019600003C08BE20E94B906CE010E942F078EE2CF
:101970000E94B9068AE0C816D1041CF480E30E94D4
:10198000B906C6010E942F07DF91CF911F910F91D9
:10199000FF90EF90DF90CF900895CF92DF92EF927B
:1019A000FF920F931F93DF93CF930F92CDB7DEB7C4
:1019B0006E010894C11CD11C80918C03843071F598
:1019C00080917B0890917C0860E070E0A6010E9405
:1019D000C304FC0160817181882777FD8095982F71
:1019E0000E94BD190E94611D7B018C018091010D37
:1019F0009091020D60E070E0A6010E946A048AECFA
:101A00000E94AE06C801B7010E94310C8091010D01
:101A10009091020D0E944C0410928C0380E060E0D3
:101A200040E024EF31E00E94CD02C6CFEF92FF925A
:101A30000F931F93DF93CF930F92CDB7DEB77E0145
:101A40000894E11CF11C80918C03813049F5809150
:101A50007B0890917C0860E070E0A7010E94C304BD
:101A6000FC01008111818091010D9091020D60E0D7
:101A700070E0A7010E946A0489EC0E94AE06009FF4
:101A8000C001019F900D109F900D11240E94040B26
:101A90008091010D9091020D0E944C0410928C03D4
:101AA00080E060E040E024EF31E00E94CD02CBCF47
:101AB000AF92BF92CF92DF92EF92FF920F931F935C
:101AC000DF93CF930F92CDB7DEB75E010894A11CD0
:101AD000B11C80918C03843009F048C080917D094D
:101AE00090917E0960E070E0A5010E94C3048C0122
:101AF00080917F099091800960E070E0A5010E94CB
:101B0000C3046C01F8016081772767FD7095872F0A
:101B1000972F0E94BD197B018C01F6016081772708
:101B200067FD7095872F972F0E94BD199B01AC010F
:101B3000C801B7010E94E1187B018C018091010D61
:101B40009091020D60E070E0A5010E946A048AECA9
:101B50000E94AE06B701C8010E94310C8091010DB0
:101B60009091020D0E944C0410928C0380E060E082
:101B700040E024EF31E00E94CD02ABCFCF92DF9264
:101B8000EF92FF920F931F93DF93CF930F92CDB7F6
:101B9000DEB76E010894C11CD11C80918C03833088
:101BA00089F580917D0990917E0960E070E0A60141
:101BB0000E94C3047C0180917F099091800960E0BC
:101BC00070E0A6010E94C304FC010081F70180813E
:101BD0000802800111248091010D9091020D60E0B6
:101BE00070E0A6010E946A048AEC0E94AE06C80159
:101BF0000E949F088091010D9091020D0E944C045B
:101C000010928C0380E060E040E024EF31E00E941D
:101C1000CD02C3CFEF92FF920F931F93DF93CF9329
:101C20000F92CDB7DEB77E010894E11CF11C8091C4
:101C30008C03823091F580917D0990917E0960E05E
:101C400070E0A7010E94C3048C0180917F099091EC
:101C5000800960E070E0A7010E94C304FC01D80184
:101C60001C918081181B8091010D9091020D60E004
:101C700070E0A7010E946A048AEC0E94AE06812FE0
:101C8000992787FD90950E94F6088091010D90910B
:101C9000020D0E944C0410928C0380E060E040E052
:101CA00024EF31E00E94CD02C2CFCF92DF92EF92BB
:101CB000FF920F931F93DF93CF930F92CDB7DEB7B1
:101CC0006E010894C11CD11C80918C038130B1F548
:101CD00080917D0990917E0960E070E0A6010E94EC
:101CE000C3047C0180917F099091800960E070E0DD
:101CF000A6010E94C304FC010081112707FD109575
:101D0000F7018081992787FD9095080F191F809111
:101D1000010D9091020D60E070E0A6010E946A043E
:101D20008CEC0E94AE06C8010E949F088091010DB4
:101D30009091020D0E944C0410928C0380E060E0B0
:101D400040E024EF31E00E94CD02BECFCF92DF927F
:101D5000EF92FF920F931F93DF93CF930F92CDB724
:101D6000DEB76E010894C11CD11C80918C038330B6
:101D700071F580917B0890917C0860E070E0A6018D
:101D80000E94C304FC0160817181882777FD8095E2
:101D9000982F0E94BD190E946C1D7B018C018091BF
:101DA000010D9091020D60E070E0A6010E946A04AE
:101DB0008AEC0E94AE06C801B7010E94310C8091E6
:101DC000010D9091020D0E944C0410928C0380E052
:101DD00060E040E024EF31E00E94CD02C6CFCF9218
:101DE000DF92EF92FF920F931F93DF93CF930F92A7
:101DF000CDB7DEB76E010894C11CD11C80918C0355
:101E0000823071F580917B0890917C0860E070E0F1
:101E1000A6010E94C304FC0160817181882777FDBF
:101E20008095982F0E94BD190E94171E7B018C017E
:101E30008091010D9091020D60E070E0A6010E947A
:101E40006A048AEC0E94AE06C801B7010E94310CF8
:101E50008091010D9091020D0E944C0410928C0310
:101E600080E060E040E024EF31E00E94CD02C6CF88
:101E7000CF92DF92EF92FF920F931F93DF93CF9356
:101E80000F92CDB7DEB76E010894C11CD11C8091B2
:101E90008C038330D1F58091830D9091840D60E0A7
:101EA00070E0A6010E94C304FC0160817181882753
:101EB00077FD8095982F0E94BD192BED3FE049E4F6
:101EC00050E40E94E71720E030E044E353E40E942E
:101ED000E1180E94551E7B018C018091010D9091AB
:101EE000020D60E070E0A6010E946A048AEC0E9484
:101EF000AE06C801B7010E94770C8091010D909148
:101F0000020D0E944C0410928C0380E060E040E0DF
:101F100024EF31E00E94CD02BACFCF92DF92EF9250
:101F2000FF920F931F93DF93CF930F92CDB7DEB73E
:101F30006E010894C11CD11C80918C038230D1F5B4
:101F40008091830D9091840D60E070E0A6010E9465
:101F5000C304FC0160817181882777FD8095982FEB
:101F60000E94BD192BED3FE049E450E40E94E717C1
:101F700020E030E044E353E40E94E1180E94031D96
:101F80007B018C018091010D9091020D60E070E069
:101F9000A6010E946A048AEC0E94AE06C801B7013D
:101FA0000E94770C8091010D9091020D0E944C04CB
:101FB00010928C0380E060E040E024EF31E00E946A
:101FC000CD02BACFCF92DF92EF92FF920F931F9381
:101FD000DF93CF930F92CDB7DEB76E010894C11C8B
:101FE000D11C80918C038130D1F58091830D90912B
:101FF000840D60E070E0A6010E94C304FC016081D2
:102000007181882777FD8095982F0E94BD192BED4F
:102010003FE049E450E40E94E71720E030E044E369
:1020200053E40E94E1180E940D1E7B018C018091F7
:10203000010D9091020D60E070E0A6010E946A041B
:102040008AEC0E94AE06C801B7010E94770C80910D
:10205000010D9091020D0E944C0410928C0380E0BF
:1020600060E040E024EF31E00E94CD02BACF4F9211
:102070005F926F927F928F929F92AF92BF92CF9218
:10208000DF92EF92FF920F931F93DF93CF93CDB721
:10209000DEB729970FB6F894DEBF0FBECDBF90EA2A
:1020A000C92E0AE086E0A82EB12CAC0EBD1E13E0AE
:1020B000D12E7E010894E11CF11CB8E08B2E912CEE
:1020C0008C0E9D1EA2E06A2E712C6C0E7D1EF4E01B
:1020D0004F2E512C4C0E5D1EB29B05C0B39B28C3E6
:1020E000B49B33C3FAC280E885BB0E941716182F31
:1020F00080E868E072E00E94C4061F3F09F4B4C0A3
:102100008091910390919203019690939203809312
:1021100091038230910591F18330910534F4009759
:1021200059F0019709F067C018C083309105B9F1E3
:10213000049709F060C044C08091010D9091020D98
:1021400060E070E0A7010E946A0480EC0E94AE0685
:1021500080E090E00E942F0748C010938D0380918B
:10216000010D9091020D60E070E0A7010E946A04E9
:1021700080EC0E94AE0680918D0332C010938E03D6
:102180008091010D9091020D60E070E0A7010E9426
:102190006A0481EC0E94AE0680918E0321C01093E8
:1021A0008F038091010D9091020D60E070E0A70116
:1021B0000E946A0485EC0E94AE0680918F0310C0D5
:1021C000109390038091010D9091020D60E070E0FA
:1021D000A7010E946A0486EC0E94AE0680919003DB
:1021E000992787FD90950E94EC068091010D9091B2
:1021F000020D0E944C041B3029F58091010D909135
:10220000020D60E070E0A7010E946A0481E00E9474
:10221000AE0684EF91E00E94910680E868E072E0EB
:102220000E94C40680EC69E172E00E94C4068091BD
:10223000010D9091020D0E944C0410929203109295
:10224000910353C01C3081F481E080938C03809112
:10225000010D9091020D60E070E0A7010E946A04F8
:1022600083EC6AE272E034C01D3081F482E0809336
:102270008C038091010D9091020D60E070E0A70148
:102280000E946A0483EC6EE272E022C01E3079F490
:10229000D0928C038091010D9091020D60E070E06E
:1022A000A7010E946A0483EC60E372E011C01F3052
:1022B000E1F484E080938C038091010D9091020DF4
:1022C00060E070E0A7010E946A0483EC62E372E0C0
:1022D0000E94C40688EC6CE272E00E94C406809101
:1022E000010D9091020D0E944C0420918D0320025B
:1022F0009001112480918E03992787FD9095280FD6
:10230000391F3B832A8320918F03200290011124DF
:1023100080919003992787FD9095280F391F3D8361
:102320002C8380917D0990917E09B3010E94A904BC
:1023300080917F0990918009B201C5C1809191037C
:102340009091920301969093920380939103813030
:102350009105A1F08230910511F1892BD9F5809179
:10236000010D9091020D60E070E0A7010E946A04E7
:1023700080EC0E94AE0680E090E024C010938D03B4
:102380008091010D9091020D60E070E0A7010E9424
:102390006A0485EC0E94AE0680918D0310C01093F4
:1023A0008E038091010D9091020D60E070E0A70115
:1023B0000E946A0486EC0E94AE0680918E039927E3
:1023C00087FD90950E94EC068091010D9091020D81
:1023D0000E944C041B3029F58091010D9091020D53
:1023E00060E070E0A7010E946A0481E00E94AE06EE
:1023F00084EF91E00E94910680E868E072E00E941C
:10240000C40680EC69E172E00E94C4068091010D6F
:102410009091020D0E944C0410929203109291032D
:1024200041C01C3081F481E080938C038091010DC8
:102430009091020D60E070E0A7010E946A0480ECB8
:1024400064E372E022C01D3081F482E080938C034B
:102450008091010D9091020D60E070E0A7010E9453
:102460006A0480EC68E372E010C01E30D9F4D092A8
:102470008C038091010D9091020D60E070E0A70146
:102480000E946A0480EC6CE372E00E94C40688EC4F
:102490006CE272E00E94C4068091010D9091020DE1
:1024A0000E944C0420918D03200290011124809100
:1024B0008E03992787FD9095280F391F3F832E8320
:1024C0008091830D9091840DB501FDC080919103A1
:1024D000909192030196909392038093910381309F
:1024E0009105E1F0823091051CF4892B41F053C035
:1024F0008230910521F1039709F04DC031C08091E0
:10250000010D9091020D60E070E0A7010E946A0445
:1025100080EC0E94AE0680E090E035C010938D0301
:102520008091010D9091020D60E070E0A7010E9482
:102530006A0484EC0E94AE0680918D0321C0109342
:102540008E038091010D9091020D60E070E0A70173
:102550000E946A0485EC0E94AE0680918E0310C032
:1025600010938F038091010D9091020D60E070E057
:10257000A7010E946A0486EC0E94AE0680918F0338
:10258000992787FD90950E94EC068091010D90910E
:10259000020D0E944C041B3029F58091010D909191
:1025A000020D60E070E0A7010E946A0481E00E94D1
:1025B000AE0684EF91E00E94910680E868E072E048
:1025C0000E94C40680EC69E172E00E94C40680911A
:1025D000010D9091020D0E944C04109292031092F2
:1025E000910356C01C3099F481E080938C03809154
:1025F000010D9091020D60E070E0A7010E946A0455
:1026000080EC60E472E00E94C40687EC37C01D30A5
:1026100081F482E080938C038091010D9091020DF2
:1026200060E070E0A7010E946A0480EC63E472E05D
:1026300022C01E3079F4D0928C038091010D9091CC
:10264000020D60E070E0A7010E946A0480EC68E47B
:1026500072E011C01F30E1F484E080938C0380911C
:10266000010D9091020D60E070E0A7010E946A04E4
:1026700080EC6BE472E00E94C40689EC6CE272E0CC
:102680000E94C4068091010D9091020D0E944C049D
:1026900020918D0384E628029001112480918E03FD
:1026A0008002C0011124280F391F80918F039927C0
:1026B00087FD9095280F391F3987288780917B08DF
:1026C00090917C08B4010E94A90480E060E040E0A1
:1026D00028EC30E00E94CD02FFCC0E94171615BAFC
:1026E0008B3009F0F9CC8091010D9091020D60E0E2
:1026F00070E0A7010E946A0481E00E94AE0684EFA8
:1027000091E00E94910680E86FE472E00E94C406A6
:1027100080EC69E172E00E94C4068091010D909105
:10272000020D0E944C041092920310929103D4CC9B
:10273000C5BA80E860E672E00E94C4060E941716DF
:10274000182F8F3F09F0FACD7ECE88EA85BB80E84E
:1027500061E772E00E94C4060E941716182F8F3F8F
:1027600009F0B4CE54CFF89485E08EBD84E087BFE5
:102770008EEF8DBD88EC8CBD78940E94D00381E0F3
:1027800090E00E94BA019093020D8093010D87E3BF
:1027900090E160E070E040E05BE02BE00E94F80335
:1027A00085E59EE060E070E040E05AE02CE00E94A9
:1027B000F8038AE09EE060E070E04AE757E02DE031
:1027C0000E94F8038EEB9DE060E070E04AE758E07D
:1027D0002EE00E94F80388E59DE060E070E042E8AA
:1027E0005DE02FE00E94F80382EE9FE060E070E081
:1027F00040E85AE020E10E94F8038DE89FE060E0A5
:1028000070E04AEF57E021E10E94F80388E39FE07F
:1028100060E070E040E85CE022E10E94F80386E1BD
:102820009DE060E070E040E05CE023E10E94F8039E
:102830008FEE9EE060E070E040E85BE024E10E9403
:10284000F80386EA9EE060E070E04CE759E025E19D
:102850000E94F8038DEC9CE060E070E04CEF58E0E3
:1028600026E10E94F80310921D0410921E0410929B
:102870001F041092200480E060E041E020E030E09E
:102880000E94CD02F0CF0E946A068CE291E00E9485
:1028900091060E94D30680E86FE472E00E94C406AD
:1028A00080EC69E172E00E94C4060E94F00580E0BD
:1028B00090E00E94930190937E0980937D0980E0CF
:1028C00090E00E9493019093800980937F0980E0BB
:1028D00090E00E9493019093840D8093830D80E09B
:1028E00090E00E94930190937C0880937B080E9463
:1028F000EA1583EB93E160E070E040E05DE020E00A
:102900000E94F8030E946E0580E090E0089508950B
:1029100008950895089508950895FA018083929383
:102920001292129212921292129212921292129287
:102930001292129212921292129212921292129277
:102940001292129212921292129212921292129267
:1029500062937293129212921292129212921292A5
:10296000129280E882933197CF01089508950895D7
:1029700008950E94B6140091940303950093940364
:10298000E0912904F0912A04C191CDBFD191DEBF1D
:102990000F910FBF0F910BBFFF91EF91DF91CF917F
:1029A000BF91AF919F918F917F916F915F914F9167
:1029B0003F912F911F910F91FF90EF90DF90CF905B
:1029C000BF90AF909F908F907F906F905F904F904F
:1029D0003F902F901F900F9008950F921F922F926B
:1029E0003F924F925F926F927F928F929F92AF929F
:1029F000BF92CF92DF92EF92FF920F931F932F938C
:102A00003F934F935F936F937F938F939F93AF9376
:102A1000BF93CF93DF93EF93FF930BB70F930FB752
:102A20000F93E0913804F0913904CDB7C193DEB72C
:102A3000D1930E94B6140091990300939A03E091F8
:102A40002904F0912A04E0933804F0933904C191E9
:102A5000CDBFD191DEBF0F910FBF0F910BBFFF9183
:102A6000EF91DF91CF91BF91AF919F918F917F9126
:102A70006F915F914F913F912F911F910F91FF9017
:102A8000EF90DF90CF90BF90AF909F908F907F900E
:102A90006F905F904F903F902F901F900F900895F0
:102AA0000E94B6140091990300939A03E0912904BF
:102AB000F0912A04E0933804F0933904C191CDBF1A
:102AC000D191DEBF0F910FBF0F910BBFFF91EF911F
:102AD000DF91CF91BF91AF919F918F917F916F9136
:102AE0005F914F913F912F911F910F91FF90EF9028
:102AF000DF90CF90BF90AF909F908F907F906F901E
:102B00005F904F903F902F901F900F9008950F92DD
:102B10001F922F923F924F925F926F927F928F926D
:102B20009F92AF92BF92CF92DF92EF92FF920F935C
:102B30001F932F933F934F935F936F937F938F9345
:102B40009F93AF93BF93CF93DF93EF93FF930BB715
:102B50000F930FB700680F9300913704039500930C
:102B60003704013041F4CDB7DEB7E0913804F0917D
:102B70003904C193D1930EEF0DBD08EC0CBD7894D0
:102B80000E94290500000E949B050F910FBF0F9125
:102B90000BBFFF91EF91DF91CF91BF91AF919F91CB
:102BA0008F917F916F915F914F913F912F911F91E5
:102BB0000F91FF90EF90DF90CF90BF90AF909F90DC
:102BC0008F907F906F905F904F903F902F901F90CD
:102BD0000F90089583B18F7083B982B1806F82B9ED
:102BE00081B38F7081BB82B38F7082BB089530E157
:102BF00080E040E050E0E5E333B99E2F9A95F1F78D
:102C000070B3982F20E1682F6C5F822F872369F4BF
:102C10009F5F220F9617C9F7330F4F5F5F4F443006
:102C2000510511F0892FE8CF9FEF892F08951F9349
:102C3000CF93DF930E94F715182FC0E4DCE9CE0193
:102C40000197F1F7CE010197F1F7CE010197F1F766
:102C50000E94F715181711F0182FF1CF1F3F31F010
:102C600080918202811711F41FEF02C0109382023B
:102C7000812FDF91CF911F910895A0E0B0E0E3E4B0
:102C8000F6E10C94CC1CDC012B01FA019C919230F2
:102C900008F439C1EB018881823008F433C19430E3
:102CA00069F4843009F02FC111969C9111978981A4
:102CB000981709F428C1A3E8B2E025C1843009F4CB
:102CC00021C18230A9F4923009F01DC19A01AD01F1
:102CD00088E0EA010990AE01E90109929E01815064
:102CE000C1F7E201898111969C918923818308C1F2
:102CF000923009F407C112962D903C901397EB0186
:102D00008A819B811496AD90BD90CD90DC901797F1
:102D1000EC80FD800E811F819101281B390BB901C8
:102D200037FF04C066277727621B730B603271057B
:102D30000CF061C0121613066CF537014801062E1F
:102D400004C096948794779467940A94D2F721E00C
:102D500030E040E050E004C0220F331F441F551FF5
:102D60006A95D2F721503040404050402E213F21FB
:102D700040235123211531054105510521F021E062
:102D800030E040E050E079018A01E628F728082980
:102D900019293CC0232BD1F1260E371E35014601DF
:102DA000062E04C096948794779467940A94D2F779
:102DB00021E030E040E050E004C0220F331F441F08
:102DC000551F6A95D2F721503040404050402A218B
:102DD0003B214C215D21211531054105510521F093
:102DE00021E030E040E050E059016A01A628B72810
:102DF000C828D9280BC0821593052CF01C01AA24E1
:102E0000BB24650103C0EE24FF24870111969C9129
:102E1000D20111968C91981709F445C0992339F085
:102E2000A80197012A193B094C095D0906C0A601B2
:102E300095012E193F09400B510B57FD08C0118217
:102E40003382228224833583468357831DC081E0E9
:102E500081833382228288279927DC01821B930B8E
:102E6000A40BB50B84839583A683B7830DC0220F73
:102E7000331F441F551F2483358346835783828124
:102E80009381019793838283248135814681578181
:102E9000DA01C9010197A109B1098F5F9F4FAF4FB7
:102EA000BF4328F30BC0918333822282EA0CFB1CC0
:102EB0000C1D1D1DE482F5820683178383E0808349
:102EC000248135814681578157FF1AC0C901AA273D
:102ED00097FDA095BA2F81709070A070B070569534
:102EE000479537952795822B932BA42BB52B84835D
:102EF0009583A683B783828193810196938382838E
:102F0000DF0101C0D201CD01CDB7DEB7E2E10C9403
:102F1000E81CA0E2B0E0EFE8F7E10C94D81C69836C
:102F20007A838B839C832D833E834F835887E9E08C
:102F3000EE2EF12CEC0EFD1ECE010196B7010E9483
:102F4000931B8E010F5E1F4FCE010596B8010E94A4
:102F5000931B8A8991E089278A8BC701B801AE014A
:102F6000475E5F4F0E943D160E94BE1AA096E6E0A3
:102F70000C94F41CA0E2B0E0E0ECF7E10C94D81C57
:102F800069837A838B839C832D833E834F83588709
:102F9000F9E0EF2EF12CEC0EFD1ECE010196B701EB
:102FA0000E94931B8E010F5E1F4FCE010596B80144
:102FB0000E94931BC701B801AE01475E5F4F0E949C
:102FC0003D160E94BE1AA096E6E00C94F41CA0E206
:102FD000B0E0EDEEF7E10C94CC1C69837A838B832F
:102FE0009C832D833E834F835887CE010196BE017B
:102FF000675F7F4F0E94931BCE010596BE016F5EF7
:103000007F4F0E94931B9985923088F08989823086
:10301000C8F0943019F4823051F404C0843029F49B
:10302000923081F483E892E0C6C0923049F420E007
:103030009A858A89981321E02A87CE010996BBC018
:10304000823049F420E09A858A89981321E02A8BFE
:10305000CE014196B0C02D843E844F8458886D883F
:103060007E888F88988CEE24FF248701AA24BB24B5
:10307000650140E050E060E070E0E0E0F0E0C101B8
:1030800081709070892BE9F0E60CF71C081D191D62
:103090009A01AB012A0D3B1D4C1D5D1D80E090E0A7
:1030A000A0E0B0E0E614F7040805190520F481E07B
:1030B00090E0A0E0B0E0BA01A901480F591F6A1FD3
:1030C0007B1FAA0CBB1CCC1CDD1C97FE08C081E03A
:1030D00090E0A0E0B0E0A82AB92ACA2ADB2A3196FB
:1030E000E032F10549F0660C771C881C991C569457
:1030F000479437942794C3CFFA85EA892B893C8972
:103100008B859C85280F391F2E5F3F4F17C0CA0142
:1031100081709070892B61F016950795F794E7946C
:1031200080E090E0A0E0B0E8E82AF92A0A2B1B2B07
:1031300076956795579547952F5F3F4F77FDE7CF7A
:103140000CC0440F551F661F771F17FD4160EE0C22
:10315000FF1C001F111F21503040403090E05907E4
:1031600090E0690790E4790760F32B8F3C8FDB01D7
:10317000CA018F779070A070B07080349105A1055E
:10318000B10561F447FD0AC0E114F1040105110520
:1031900029F0405C5F4F6F4F7F4F40781A8EFE17CB
:1031A00011F081E08A8F4D8F5E8F6F8F78A383E05F
:1031B000898FCE0149960E94BE1AA096E2E10C9436
:1031C000E81CA8E1B0E0E7EEF8E10C94D41C6983B8
:1031D0007A838B839C832D833E834F835887B9E00A
:1031E000EB2EF12CEC0EFD1ECE010196B7010E94D4
:1031F000931B8E010F5E1F4FCE010596B8010E94F2
:10320000931B2985223008F47EC03989323010F4AE
:10321000B8017CC08A859A8989278A87243011F071
:10322000223031F4231709F06EC063E872E06EC0FB
:10323000343039F41D861E861F86188A1C861B862C
:1032400004C0323021F484E08987B7015FC02B8548
:103250003C858B899C89281B390B3C872B87ED8407
:10326000FE840F851889AD88BE88CF88D88CEA1473
:10327000FB040C051D0540F4EE0CFF1C001F111F84
:10328000215030403C872B8720E030E040E050E088
:1032900080E090E0A0E0B0E460E070E0EA14FB04BD
:1032A0000C051D0540F0282B392B4A2B5B2BEA1807
:1032B000FB080C091D09B695A79597958795EE0C07
:1032C000FF1C001F111F6F5F7F4F6F31710531F7BA
:1032D000DA01C9018F779070A070B07080349105C9
:1032E000A105B10561F427FD0AC0E114F10401054F
:1032F000110529F0205C3F4F4F4F5F4F20782D87FD
:103300003E874F87588BBE01675F7F4FCB010E947E
:10331000BE1A6896EAE00C94F01CA8E1B0E0E3E97C
:10332000F9E10C94D81C69837A838B839C832D8369
:103330003E834F83588789E0E82EF12CEC0EFD1E6A
:10334000CE010196B7010E94931B8E010F5E1F4FA5
:10335000CE010596B8010E94931B8985823040F00A
:103360008989823028F0C701B8010E940B1C01C076
:1033700081E06896E6E00C94F41CA8E0B0E0E3EC91
:10338000F9E10C94D51C9B01AC0183E08983DA013F
:10339000C9018827B7FD83959927AA27BB27B82E8F
:1033A000211531054105510519F482E089833AC0A0
:1033B0008823A9F0203080E0380780E0480780E8C3
:1033C000580729F460E070E080E09FEC30C0EE2404
:1033D000FF248701E21AF30A040B150B02C07901DE
:1033E0008A018EE1C82ED12CDC82CB82ED82FE8256
:1033F0000F831887C801B7010E946F1A019718162A
:10340000190684F4082E04C0EE0CFF1C001F111FC7
:103410000A94D2F7ED82FE820F831887C81AD90A60
:10342000DC82CB82BA82CE0101960E94BE1A289617
:10343000E9E00C94F11CACE0B0E0E1E2FAE10C94BC
:10344000DC1C69837A838B839C83CE010196BE0149
:103450006B5F7F4F0E94931B8D81823061F18230C0
:1034600050F1843021F48E81882351F12EC02F81B8
:10347000388537FD20C06E812F3131051CF0662361
:10348000F9F023C08EE190E0821B930B29853A85E9
:103490004B855C8504C056954795379527958A9549
:1034A000D2F76623B1F050954095309521953F4F66
:1034B0004F4F5F4F0EC020E030E040E050E009C0C9
:1034C0002FEF3FEF4FEF5FE704C020E030E040E038
:1034D00050E8B901CA012C96E2E00C94F81CEF9276
:1034E000FF920F931F937B018C0180E0E81680E030
:1034F000F80681E0080780E0180788F48FEFE816E7
:10350000F1040105110531F028F088E090E0A0E019
:10351000B0E017C080E090E0A0E0B0E012C080E032
:10352000E81680E0F80680E0080781E0180728F038
:1035300088E190E0A0E0B0E004C080E190E0A0E08D
:10354000B0E020E230E040E050E0281B390B4A0BAD
:103550005B0B04C016950795F794E7948A95D2F70C
:10356000F701E557FD4F8081281B310941095109B9
:10357000C9011F910F91FF90EF900895DF92EF9294
:10358000FF920F931F93FC01E480F5800681178161
:10359000D1808081823048F480E090E0A0E1B0E00A
:1035A000E82AF92A0A2B1B2BA5C0843009F49FC0F6
:1035B000823021F4EE24FF24870105C0E114F104D8
:1035C0000105110519F4E0E0F0E096C06281738115
:1035D0009FEF623879070CF05BC022E83FEF261BB3
:1035E000370B2A3131052CF020E030E040E050E08C
:1035F0002AC0B801A701022E04C076956795579599
:1036000047950A94D2F781E090E0A0E0B0E004C0D2
:10361000880F991FAA1FBB1F2A95D2F70197A109EE
:10362000B1098E219F21A023B1230097A105B105E7
:1036300021F081E090E0A0E0B0E09A01AB01282BFE
:10364000392B4A2B5B2BDA01C9018F779070A07060
:10365000B07080349105A105B10539F427FF09C088
:10366000205C3F4F4F4F5F4F04C0215C3F4F4F4F97
:103670005F4FE0E0F0E02030A0E03A07A0E04A072A
:10368000A0E45A0710F0E1E0F0E079018A0127C0D8
:103690006038710564F5FB01E158FF4FD801C7019F
:1036A0008F779070A070B07080349105A105B1053E
:1036B00039F4E7FE0DC080E490E0A0E0B0E004C083
:1036C0008FE390E0A0E0B0E0E80EF91E0A1F1B1F98
:1036D00017FF05C016950795F794E794319687E094
:1036E00016950795F794E7948A95D1F705C0EE24CF
:1036F000FF248701EFEFF0E06E2F6795662767954F
:10370000902F9F77D794DD24D7948E2F8695492FBD
:10371000462B582F5D29B701CA011F910F91FF90C9
:10372000EF90DF900895FC01DB01408151812281FF
:10373000622F6F7770E0221F2227221F9381892F2B
:10374000880F822B282F30E0991F9927991F1196F7
:103750009C93119721153105A9F541155105610576
:10376000710511F482E037C082E89FEF13969C93B5
:103770008E9312979A01AB0167E0220F331F441F0B
:10378000551F6A95D1F783E08C930DC0220F331F2C
:10379000441F551F12968D919C9113970197139674
:1037A0009C938E931297203080E0380780E0480782
:1037B00080E4580758F314962D933D934D935C93F2
:1037C000179708952F3F310579F44115510561058B
:1037D000710519F484E08C93089564FF03C081E0BF
:1037E0008C9312C01C9210C02F57304013963C93FC
:1037F0002E93129783E08C9387E0440F551F661F2A
:10380000771F8A95D1F7706414964D935D936D93ED
:103810007C93179708951F93DC01FB019C919230D4
:1038200008F447C08081823008F443C0943051F4DA
:1038300011961C91843099F58181682F70E0611B8D
:1038400071093FC0843021F0923031F48230B9F1F7
:103850008181882389F12DC011961C9111978230A6
:10386000F1F081811817D9F412962D913C9113979C
:10387000828193818217930794F028173907BCF04F
:1038800014968D919D910D90BC91A02D2481358130
:1038900046815781281739074A075B0718F4112317
:1038A00041F00AC082179307A407B50740F411231B
:1038B00019F061E070E005C06FEF7FEF02C060E0DB
:1038C00070E0CB011F910895629FD001739FF001BA
:1038D000829FE00DF11D649FE00DF11D929FF00DA0
:1038E000839FF00D749FF00D659FF00D9927729FD7
:1038F000B00DE11DF91F639FB00DE11DF91FBD0162
:10390000CF0111240895AA1BBB1B51E107C0AA1FB8
:10391000BB1FA617B70710F0A61BB70B881F991F70
:103920005A95A9F780959095BC01CD01089597FB14
:10393000092E07260AD077FD04D0E5DF06D0002047
:103940001AF4709561957F4F0895F6F790958195DB
:103950009F4F0895A1E21A2EAA1BBB1BFD010DC0AB
:10396000AA1FBB1FEE1FFF1FA217B307E407F5072F
:1039700020F0A21BB30BE40BF50B661F771F881F0B
:10398000991F1A9469F760957095809590959B01A1
:10399000AC01BD01CF0108952F923F924F925F92EB
:1039A0006F927F928F929F92AF92BF92CF92DF924F
:1039B000EF92FF920F931F93CF93DF93CDB7DEB7B4
:1039C000CA1BDB0B0FB6F894DEBF0FBECDBF099448
:1039D0002A88398848885F846E847D848C849B849F
:1039E000AA84B984C884DF80EE80FD800C811B81AD
:1039F000AA81B981CE0FD11D0FB6F894DEBF0FBEDC
:103A0000CDBFED01089503D0E39528C0E2C13FD0BA
:103A1000E8F3E894E0E0BB279F57F0F02AED3FE0A1
:103A200049EC06C0EE0FBB0F661F771F881F28F0FA
:103A3000B23A62077307840728F0B25A620B730B1D
:103A4000840BE3959A9572F7803830F49A95BB0F02
:103A5000661F771F881FD2F79048AFC1EF93E0FF32
:103A600006C0A2EA2AED3FE049EC5FEB4BD1FFD163
:103A70000F90039401FC9058ECE8F0E0D9C157FD99
:103A80009058440F551F59F05F3F71F04795880FCC
:103A900097FB991F61F09F3F79F087950895121663
:103AA00013061406551FF2CF4695F1DF08C016160F
:103AB00017061806991FF1CF8695710561050894C0
:103AC00008950AD029ED3BE54EED5EE380CA0EF085
:103AD00072C17FC1689469C1DADFC8F39923D1F359
:103AE000C6F3DF93CF931F930F93FF92C92FDD2768
:103AF00088232AF02197660F771F881FDAF720E0C6
:103B000030E040E85FEB9FE3883920F0803E30F002
:103B100021968F772FDAEAEAF0E003C02BDAE7ED9F
:103B2000F0E061D18B01BE01EC01FB2E6F577109F2
:103B30007595771F880B990B20DC28E132E741E36C
:103B40005FE314D0AF2D9801AE01FF900F911F914C
:103B5000CF91DF91D7D08BC17CD128F081D118F0E3
:103B6000952309F022C135C1112493C188DFA0F348
:103B7000959FD1F3950F50E0551F629FF001729F02
:103B8000BB27F00DB11D639FAA27F00DB11DAA1F21
:103B9000649F6627B00DA11D661F829F2227B00D6E
:103BA000A11D621F739FB00DA11D621F839FA00DF9
:103BB000611D221F749F3327A00D611D231F849F49
:103BC000600D211D822F762F6A2F11249F575040A0
:103BD0008AF0E1F088234AF0EE0FFF1FBB1F661F3B
:103BE000771F881F91505040A9F79E3F510570F0F4
:103BF000DCC04FC15F3FECF3983EDCF386957795D0
:103C00006795B795F795E7959F5FC1F7FE2B880FEE
:103C1000911D9695879597F908959F93F8DE0F90DB
:103C200007FCEE5F1BCF11F40EF4D3C0C4C02FDF2E
:103C3000D0F39923D9F3CEF39F57550B87FFCCD000
:103C40000024A0E640EA900180585695979528F404
:103C5000805C660F771F881F20F0261737074807FC
:103C600030F4621B730B840B202931294A2BA69553
:103C700017940794202531254A2758F7660F771F98
:103C8000881F20F026173707480730F4620B730BA4
:103C9000840B200D311D411DA09581F7B901842FA2
:103CA0009158880F969587950895DF93D92FAFDEA9
:103CB000E695D7952AED3FE049E45FE3B33A620722
:103CC000730784079507D7952AF0A2EA49EC906814
:103CD00019D0CDD0E4E0F1E0ABD0DD0F0BF0DFD0B8
:103CE000DD0F0BF49058DF910895B3D030F0B8D0C9
:103CF00020F031F49F3F11F41EF46BC00EF4E095F8
:103D0000E7FB53C0E92FBBDE80F3BA1762077307E6
:103D10008407950718F071F49EF5BAC00EF4E0958B
:103D20000B2EBA2FA02D0B01B90190010C01CA0175
:103D3000A0011124FF27591B99F0593F50F4503E20
:103D400068F11A16F040A22F232F342F4427585F12
:103D5000F3CF469537952795A795F0405395C9F72A
:103D60007EF41F16BA0B620B730B840BBAF09150E2
:103D7000A1F0FF0FBB1F661F771F881FC2F70EC081
:103D8000BA0F621F731F841F48F487957795679554
:103D9000B795F7959E3F08F0B3CF9395880F08F03D
:103DA0009927EE0F97958795089597F99F6780E873
:103DB00070E060E008959F3F31F0915020F48795C6
:103DC00077956795B795880F911D9695879597F983
:103DD00008959FEF80EC089591505040660F771F33
:103DE000881FD2F70895DF93CF931F930F93FF920D
:103DF000EF92DF927B018C01689405C0DA2EEF010F
:103E0000B5DEFE01E894A591259135914591559136
:103E1000AEF3EF0177DFFE019701A801DA9479F79D
:103E2000DF90EF90FF900F911F91CF91DF91089558
:103E30009F938F937F936F93FF93EF939B01AC01BD
:103E4000C6D8EF91FF91CFDF2F913F914F915F91B6
:103E5000BEC800240A941616170618060906089507
:103E600000240A9412161306140605060895092E56
:103E70000394000C11F4882352F0BB0F40F4BF2BC5
:103E800011F460FF04C06F5F7F4F8F4F9F4F089505
:103E9000E894BB2766277727CB0197F908959B0104
:103EA000AC0160E070E080E89FE38BC9F894FFCF3D
:103EB00001020408102040800000010002000100FF
:103EC00003000100020001000400010002000100E3
:103ED00003000100020001000500010002000100D2
:103EE00003000100020001000400010002000100C3
:103EF00003000100020001000600010002000100B1
:103F000003000100020001000400010002000100A2
:103F10000300010002000100050001000200010091
:103F20000300010002000100040001000200010082
:103F3000030001000200010007000100020001006F
:103F40000300010002000100040001000200010062
:103F50000300010002000100050001000200010051
:103F60000300010002000100040001000200010042
:103F70000300010002000100060001000200010030
:103F80000300010002000100040001000200010022
:103F90000300010002000100050001000200010011
:103FA0000300010002000100040001000200010002
:103FB00003000100020001004D6F64653120436180
:103FC0006C63756C61746F720020202020202020AB
:103FD000202020202020202020002B003D002D002C
:103FE00078002F0053696E00436F730054616E00B8
:103FF0005E3200726F6F74006C6E006C6F67002031
:10400000204F4E2043616C63756C61746F722000A9
:104010004D6F6465322043616C63756C61746F72BF
:10402000004D6F6465332043616C63756C61746F20
:104030007200FF0000000000000000000102020307
:10404000030303040404040404040405050505052E
:10405000050505050505050505050506060606060B
:1040600006060606060606060606060606060606F0
:1040700006060606060606060606060707070707DB
:1040800007070707070707070707070707070707C0
:1040900007070707070707070707070707070707B0
:1040A00007070707070707070707070707070707A0
:1040B000070707070707070707070708080808088B
:1040C0000808080808080808080808080808080870
:1040D0000808080808080808080808080808080860
:1040E0000808080808080808080808080808080850
:1040F0000808080808080808080808080808080840
:10410000080808080808080808080808080808082F
:10411000080808080808080808080808080808081F
:10412000080808080808080808080808080808080F
:0C4130000808080808080808080808002B
:00000001FF
